:100000000C9433000C9451030C947D030C94A903BD
:100010000C94B3050C941A020C94B3050C94B3051C
:100020000C94B3050C94A9020C94E4020C94C7013F
:100030000C94B3050C94B3050C94B3050C94B30560
:100040000C94B3050C94B3050C94B3050C94B30550
:100050000C94B3050060007C80007C007D000B7474
:10006000007D007F800011241FBECFE5D8E0DEBFF9
:10007000CDBFE4E5F0E040E017C0B591A591359122
:100080002591059107FD0CC095918591EF01F92F00
:10009000E82F05900D92A217B307D9F7FE0104C00F
:1000A0001D92A217B307E1F7E536F40731F70E9476
:0A00B0006D020C945E05F894FFCF7A
:1000BA00536D6F6B6520686173206265656E20649D
:1000CA006574656374656400416E204F626A656396
:1000DA0074206973206E656172005377697463686E
:0600EA006564204F6E006A
:1000F000683008F06FC0843008F06CC0813001F1C6
:1001000030F08230B1F1833009F44CC008954130B1
:1001100059F42AB381E090E002C0880F991F6A95D4
:10012000E2F7822B8ABB08952AB381E090E002C0F7
:10013000880F991F6A95E2F7809582238ABB0895FC
:10014000413059F427B381E090E002C0880F991F35
:100150006A95E2F7822B87BB089527B381E090E090
:1001600002C0880F991F6A95E2F78095822387BBAA
:100170000895413059F424B381E090E002C0880F23
:10018000991F6A95E2F7822B84BB089524B381E01E
:1001900090E002C0880F991F6A95E2F7809582234C
:1001A00084BB0895413059F421B381E090E002C04E
:1001B000880F991F6A95E2F7822B81BB089521B3BE
:1001C00081E090E002C0880F991F6A95E2F7809560
:0601D000822381BB0895AB
:1001D600683008F06FC0843008F06CC0813001F1DF
:1001E60030F08230B1F1833009F44CC008954130CB
:1001F60059F42BB381E090E002C0880F991F6A95ED
:10020600E2F7822B8BBB08952BB381E090E002C00E
:10021600880F991F6A95E2F7809582238BBB089514
:10022600413059F428B381E090E002C0880F991F4D
:100236006A95E2F7822B88BB089528B381E090E0A7
:1002460002C0880F991F6A95E2F78095822388BBC2
:100256000895413059F425B381E090E002C0880F3B
:10026600991F6A95E2F7822B85BB089525B381E035
:1002760090E002C0880F991F6A95E2F78095822365
:1002860085BB0895413059F422B381E090E002C065
:10029600880F991F6A95E2F7822B82BB089522B3D5
:1002A60081E090E002C0880F991F6A95E2F7809579
:0602B600822382BB0895C3
:1002BC00CF93DF93CDB7DEB7E6970FB6F894DEBFDA
:1002CC000FBECDBF2AEB30E040E088E1F901DE0142
:1002DC001196742F0E943B0522ED30E040E082E144
:1002EC00F901DE015996742F0E943B0524EE30E093
:1002FC0040E08CE0F901DE019B96742F0E943B05D7
:10030C0080917D00813069F490917C00992349F0B3
:10031C00BE01675E7F4F80E80E94D50310927C007F
:10032C001DC0823069F490917C00992349F0BE0184
:10033C006F5F7F4F80E80E94D50310927C000EC047
:10034C00833061F480917C00882341F0BE01655DAF
:10035C007F4F80E80E94D50310927C0064E083E01C
:10036C000E94A7050E947D050E94D80410927D0072
:10037C00E6960FB6F894DEBF0FBECDBFDF91CF91DE
:02038C000895D2
:10038E001F920F920FB60F9211242F933F934F93FC
:10039E005F936F937F938F939F93AF93BF93EF93DF
:1003AE00FF9380916A0090916B00A0916C00B091C8
:1003BE006D000196A11DB11D80936A0090936B0094
:1003CE00A0936C00B0936D0082342FE09207A105CC
:1003DE00B10519F480EC82BF15C083349F40A1058E
:1003EE00B10581F412BE10926A0010926B00109249
:1003FE006C0010926D00E0917600F09177003097CE
:10040E0009F00995FF91EF91BF91AF919F918F9157
:10041E007F916F915F914F913F912F910F900FBEF2
:06042E000F901F901895CD
:100434001F920F920FB60F9211242F933F934F9355
:100444005F936F937F938F939F93AF93BF93EF9338
:10045400FF938091660090916700A0916800B0912D
:1004640069000196A11DB11D8093660090936700F9
:10047400A0936800B0936900813A27E09207A10530
:10048400B10519F480EE84BD15C0823A9740A105E8
:10049400B10581F414BC10926600109267001092AA
:1004A400680010926900E0916E00F0916F0030973F
:1004B40009F00995FF91EF91BF91AF919F918F91B1
:1004C4007F916F915F914F913F912F910F900FBE4C
:0604D4000F901F90189527
:1004DA0040E062E083E00E94780040E063E083E06D
:1004EA000E94780040E062E081E00E94780041E0EA
:1004FA0060E080E00E9478000E94610460E08FEE74
:10050A0094E00E94910461E083E494E00E94530520
:10051A0062E089E695E00E94530560E08EE591E08D
:10052A000E94790460E082EA95E00E94A9040E9490
:10053A00AF050E9473050E949B0587E00E94030590
:08054A0085E00E940305FFCFCC
:100552001F920F920FB60F9211242F933F934F9336
:100562005F936F937F938F939F93AF93BF93EF9319
:10057200FF9380917E008F5F80937E008C3429F4FC
:1005820080EC8CBD84EB8DBD0DC08D3459F41CBC48
:100592001DBC10927E00E0917200F09173003097C2
:1005A20009F00995FF91EF91BF91AF919F918F91C2
:1005B2007F916F915F914F913F912F910F900FBE5D
:0605C2000F901F90189538
:1005C8001F920F920FB60F9211242F933F934F93C0
:1005D8005F936F937F938F939F93AF93BF93EF93A3
:1005E800FF9380917A0090917B00019690937B0015
:1005F80080937A008031974259F410927B001092D0
:100608007A00E0917800F0917900309709F0099527
:10061800FF91EF91BF91AF919F918F917F916F91D2
:100628005F914F913F912F910F900FBE0F901F90A8
:02063800189513
:10063A00813089F028F08230C9F0833011F10895B1
:10064A002BB381E090E002C0880F991F6A95E2F708
:10065A0082278BBB089528B381E090E002C0880FFF
:10066A00991F6A95E2F7822788BB089525B381E02E
:10067A0090E002C0880F991F6A95E2F7822785BB2E
:10068A00089522B381E090E002C0880F991F6A950D
:08069A00E2F7822782BB0895FC
:1006A2001F920F920FB60F9211242F933F934F93E5
:1006B2005F936F937F938F939F93AF93BF93EF93C8
:1006C200FF93E0916000F0916100309721F009956D
:1006D20086E00E944805FF91EF91BF91AF919F91F3
:1006E2008F917F916F915F914F913F912F910F90D9
:0806F2000FBE0F901F90189538
:1006FA001F920F920FB60F9211242F933F934F938D
:10070A005F936F937F938F939F93AF93BF93EF936F
:10071A00FF93E0916200F0916300309721F0099510
:10072A0087E00E944805FF91EF91BF91AF919F9199
:10073A008F917F916F915F914F913F912F910F9080
:08074A000FBE0F901F901895DF
:100752001F920F920FB60F9211242F933F934F9334
:100762005F936F937F938F939F93AF93BF93EF9317
:10077200FF93E0916400F0916500309721F00995B4
:1007820085E00E944805FF91EF91BF91AF919F9143
:100792008F917F916F915F914F913F912F910F9028
:0807A2000FBE0F901F90189587
:1007AA006F927F928F92CF92DF92EF92CF933B011B
:1007BA00882EC0E00CC0C03119F480EC0E94FF03FF
:1007CA00F6018491E7FC80810E942104CF5FE82C26
:1007DA006301CC0ED11CE11CF6018491E7FC8081F7
:1007EA008111E9CFCF91EF90DF90CF908F907F90DA
:0407FA006F9008955F
:1007FE00CF93C82F40E060E083E00E94EB0040E022
:10080E0061E083E00E94EB006C2F82E00E942905DC
:10081E0041E065E083E00E94EB0083EF91E00197F9
:10082E00F1F700C0000040E065E083E00E94EB00BD
:04083E00CF910895B9
:10084200CF93C82F41E060E083E00E94EB0040E0DC
:1008520061E083E00E94EB006C2F82E00E94290598
:1008620041E065E083E00E94EB0083EF91E00197B5
:10087200F1F700C0000040E065E083E00E94EB0079
:04088200CF91089575
:100886008EB581608EBD8EB58D7F8EBD8EB58B7F0C
:100896008EBD8FB58E7F8FBD8FB58D7F8FBD8EB58B
:1008A600877F8EBD8EB58F7E8EBD89B7846089BFEA
:0C08B6008FB780688FBF1DBC1CBC08956C
:1008C2006FEF83E00E9417056FEF82E00E94170529
:1008D2008FE097E20197F1F700C0000088E30E94E1
:1008E200FF038CE00E94FF0381E00E94FF03089552
:1008F2000097A9F0662359F0613089F4E62FF0E001
:10090200EE0FFF1FEA58FF4F918380830895E62F71
:10091200F0E0EE0FFF1FEA58FF4F918380830895A6
:100922000097A9F0662359F0613089F4E62FF0E0D0
:10093200EE0FFF1FEE58FF4F918380830895E62F3D
:10094200F0E0EE0FFF1FEE58FF4F91838083089572
:100952000097A9F0662359F0613089F4E62FF0E0A0
:10096200EE0FFF1FE259FF4F918380830895E62F18
:10097200F0E0EE0FFF1FE259FF4F9183808308954D
:1009820083B7816083BF83B78D7F83BF83B78B7F3C
:1009920083BF83B78F7B83BF83B7877F83BF89B7CB
:0E09A200816089BF8FB780688FBF12BE089535
:1009B00085B5816085BD85B58D7F85BD85B58B7F0E
:1009C00085BD85B58F7B85BD85B5877F85BD89B79D
:0E09D000806489BF8FB780688FBF14BC089504
:1009DE0081E00E94FF0364E083E00E94AB050E9469
:1009EE0087050E94910540E060E080E00E94EB00E8
:0809FE0081E080937C00089564
:100A06009BEF980F933070F44BB721E030E0B901BB
:100A160002C0660F771F8A95E2F7CB01842B8BBF46
:080A260080E0089581E00895CD
:100A2E00843078F4813041F028F0823039F0833010
:100A3E0039F008956ABB089567BB089564BB0895A5
:040A4E0061BB0895EB
:100A5200843078F4813041F028F0823039F08330EC
:100A620039F008956BBB089568BB089565BB08957E
:040A720062BB0895C6
:100A7600992777FD05C005900D920197E1F7089536
:0A0A860001900D920197E1F7089529
:100A90009AB721E030E002C0220F331F8A95E2F7B7
:060AA000292B2ABF089576
:100AA600009741F0E62FF0E0EE0FFF1FE05AFF4FF0
:060AB60091838083089586
:100ABC00EC010E94B8050E94B705CE010E94B90551
:060ACC00CE010E94B505F9
:100AD20080917D008F5F80937D00813011F40E94B0
:040AE200C1040895AE
:100AE60085B7846085BF85B7886085BF8BB78F77EC
:040AF6008BBF089515
:100AFA0083B78E7F83BF83B78D7F83BF83B78B7F97
:040B0A0083BF089508
:100B0E008EB58E7F8EBD8EB58D7F8EBD8EB58B7F55
:040B1E008EBD0895EB
:100B220085B58E7F85BD85B58D7F85BD85B58B7F6E
:040B320085BD0895E0
:0E0B360084B7806484BF8BB78F7D8BBF08951A
:0A0B440060E080E00E941D030895A8
:080B4E0041E00E94EB00089554
:080B560040E00E94EB0008954D
:080B5E008FB780688FBF089576
:040B66000C940000EB
:040B6A000E945B008A
:020B6E000895E8
:020B70000895E6
:020B72000895E4
:010B7400017F
:00000001FF
